{
  "_format": "hh-sol-artifact-1",
  "contractName": "ZombieAttack",
  "sourceName": "contracts/ZombieAttack.sol",
  "abi": [
    {
      "anonymous": false,
      "inputs": [
        {
          "indexed": false,
          "internalType": "uint256",
          "name": "zombieId",
          "type": "uint256"
        },
        {
          "indexed": false,
          "internalType": "string",
          "name": "name",
          "type": "string"
        },
        {
          "indexed": false,
          "internalType": "uint256",
          "name": "dna",
          "type": "uint256"
        }
      ],
      "name": "NewZombie",
      "type": "event"
    },
    {
      "anonymous": false,
      "inputs": [
        {
          "indexed": true,
          "internalType": "address",
          "name": "previousOwner",
          "type": "address"
        },
        {
          "indexed": true,
          "internalType": "address",
          "name": "newOwner",
          "type": "address"
        }
      ],
      "name": "OwnershipTransferred",
      "type": "event"
    },
    {
      "inputs": [
        {
          "internalType": "uint256",
          "name": "_zombieId",
          "type": "uint256"
        },
        {
          "internalType": "uint256",
          "name": "_targetId",
          "type": "uint256"
        }
      ],
      "name": "attack",
      "outputs": [],
      "stateMutability": "nonpayable",
      "type": "function"
    },
    {
      "inputs": [
        {
          "internalType": "uint256",
          "name": "_zombieId",
          "type": "uint256"
        },
        {
          "internalType": "uint256",
          "name": "_newDna",
          "type": "uint256"
        }
      ],
      "name": "changeDna",
      "outputs": [],
      "stateMutability": "nonpayable",
      "type": "function"
    },
    {
      "inputs": [
        {
          "internalType": "uint256",
          "name": "_zombieId",
          "type": "uint256"
        },
        {
          "internalType": "string",
          "name": "_newName",
          "type": "string"
        }
      ],
      "name": "changeName",
      "outputs": [],
      "stateMutability": "nonpayable",
      "type": "function"
    },
    {
      "inputs": [
        {
          "internalType": "string",
          "name": "_name",
          "type": "string"
        }
      ],
      "name": "createRandomZombie",
      "outputs": [],
      "stateMutability": "nonpayable",
      "type": "function"
    },
    {
      "inputs": [
        {
          "internalType": "uint256",
          "name": "_zombieId",
          "type": "uint256"
        },
        {
          "internalType": "uint256",
          "name": "_kittyId",
          "type": "uint256"
        }
      ],
      "name": "feedOnKitty",
      "outputs": [],
      "stateMutability": "nonpayable",
      "type": "function"
    },
    {
      "inputs": [
        {
          "internalType": "address",
          "name": "_owner",
          "type": "address"
        }
      ],
      "name": "getZombiesByOwner",
      "outputs": [
        {
          "internalType": "uint256[]",
          "name": "",
          "type": "uint256[]"
        }
      ],
      "stateMutability": "view",
      "type": "function"
    },
    {
      "inputs": [
        {
          "internalType": "uint256",
          "name": "_zombieId",
          "type": "uint256"
        }
      ],
      "name": "levelUp",
      "outputs": [],
      "stateMutability": "payable",
      "type": "function"
    },
    {
      "inputs": [],
      "name": "owner",
      "outputs": [
        {
          "internalType": "address",
          "name": "",
          "type": "address"
        }
      ],
      "stateMutability": "view",
      "type": "function"
    },
    {
      "inputs": [],
      "name": "renounceOwnership",
      "outputs": [],
      "stateMutability": "nonpayable",
      "type": "function"
    },
    {
      "inputs": [
        {
          "internalType": "address",
          "name": "_address",
          "type": "address"
        }
      ],
      "name": "setKittyContractAddress",
      "outputs": [],
      "stateMutability": "nonpayable",
      "type": "function"
    },
    {
      "inputs": [
        {
          "internalType": "address",
          "name": "newOwner",
          "type": "address"
        }
      ],
      "name": "transferOwnership",
      "outputs": [],
      "stateMutability": "nonpayable",
      "type": "function"
    },
    {
      "inputs": [],
      "name": "withdraw",
      "outputs": [],
      "stateMutability": "nonpayable",
      "type": "function"
    },
    {
      "inputs": [
        {
          "internalType": "uint256",
          "name": "",
          "type": "uint256"
        }
      ],
      "name": "zombieToOwner",
      "outputs": [
        {
          "internalType": "address",
          "name": "",
          "type": "address"
        }
      ],
      "stateMutability": "view",
      "type": "function"
    },
    {
      "inputs": [
        {
          "internalType": "uint256",
          "name": "",
          "type": "uint256"
        }
      ],
      "name": "zombies",
      "outputs": [
        {
          "internalType": "string",
          "name": "name",
          "type": "string"
        },
        {
          "internalType": "uint256",
          "name": "dna",
          "type": "uint256"
        },
        {
          "internalType": "uint32",
          "name": "level",
          "type": "uint32"
        },
        {
          "internalType": "uint32",
          "name": "readyTime",
          "type": "uint32"
        },
        {
          "internalType": "uint16",
          "name": "winCount",
          "type": "uint16"
        },
        {
          "internalType": "uint16",
          "name": "lossCount",
          "type": "uint16"
        }
      ],
      "stateMutability": "view",
      "type": "function"
    }
  ],
  "bytecode": "0x60806040526010600155600154600a6200001a9190620002c6565b6002556201518060035566038d7ea4c6800060085560006009556046600a553480156200004657600080fd5b50620000676200005b6200006d60201b60201c565b6200007560201b60201c565b62000317565b600033905090565b60008060009054906101000a900473ffffffffffffffffffffffffffffffffffffffff169050816000806101000a81548173ffffffffffffffffffffffffffffffffffffffff021916908373ffffffffffffffffffffffffffffffffffffffff1602179055508173ffffffffffffffffffffffffffffffffffffffff168173ffffffffffffffffffffffffffffffffffffffff167f8be0079c531659141344cd1fd0a4f28419497f9722a3daafe3b4186f6b6457e060405160405180910390a35050565b7f4e487b7100000000000000000000000000000000000000000000000000000000600052601160045260246000fd5b60008160011c9050919050565b6000808291508390505b6001851115620001c7578086048111156200019f576200019e62000139565b5b6001851615620001af5780820291505b8081029050620001bf8562000168565b94506200017f565b94509492505050565b600082620001e25760019050620002b5565b81620001f25760009050620002b5565b81600181146200020b576002811462000216576200024c565b6001915050620002b5565b60ff8411156200022b576200022a62000139565b5b8360020a91508482111562000245576200024462000139565b5b50620002b5565b5060208310610133831016604e8410600b8410161715620002865782820a90508381111562000280576200027f62000139565b5b620002b5565b62000295848484600162000175565b92509050818404811115620002af57620002ae62000139565b5b81810290505b9392505050565b6000819050919050565b6000620002d382620002bc565b9150620002e083620002bc565b92506200030f7fffffffffffffffffffffffffffffffffffffffffffffffffffffffffffffffff8484620001d0565b905092915050565b61297e80620003276000396000f3fe6080604052600436106100dd5760003560e01c80635faf28801161007f5780638da5cb5b116100595780638da5cb5b1461028c578063c39cbef1146102b7578063e1fa7638146102e0578063f2fde38b14610309576100dd565b80635faf288014610223578063715018a61461024c5780637bff0a0114610263576100dd565b80633ccfd60b116100bb5780633ccfd60b146101695780634412e10414610180578063528b7b8f146101bd5780635f4623f1146101fa576100dd565b80630ce90ec2146100e257806317a7f4cc146100fe5780632052465e14610127575b600080fd5b6100fc60048036038101906100f79190611785565b610332565b005b34801561010a57600080fd5b50610125600480360381019061012091906117b2565b6103dd565b005b34801561013357600080fd5b5061014e60048036038101906101499190611785565b6104fb565b604051610160969594939291906118cd565b60405180910390f35b34801561017557600080fd5b5061017e61060b565b005b34801561018c57600080fd5b506101a760048036038101906101a29190611993565b610669565b6040516101b49190611a7e565b60405180910390f35b3480156101c957600080fd5b506101e460048036038101906101df9190611785565b6107bb565b6040516101f19190611aaf565b60405180910390f35b34801561020657600080fd5b50610221600480360381019061021c9190611993565b6107ee565b005b34801561022f57600080fd5b5061024a600480360381019061024591906117b2565b61083a565b005b34801561025857600080fd5b50610261610a2f565b005b34801561026f57600080fd5b5061028a60048036038101906102859190611bff565b610a43565b005b34801561029857600080fd5b506102a1610ae0565b6040516102ae9190611aaf565b60405180910390f35b3480156102c357600080fd5b506102de60048036038101906102d99190611ca8565b610b09565b005b3480156102ec57600080fd5b50610307600480360381019061030291906117b2565b610d0a565b005b34801561031557600080fd5b50610330600480360381019061032b9190611993565b610f37565b005b6008543414610376576040517f08c379a000000000000000000000000000000000000000000000000000000000815260040161036d90611d54565b60405180910390fd5b6004818154811061038a57610389611d74565b5b9060005260206000209060030201600201600081819054906101000a900463ffffffff16809291906103bb90611dd2565b91906101000a81548163ffffffff021916908363ffffffff1602179055505050565b6000600760009054906101000a900473ffffffffffffffffffffffffffffffffffffffff1673ffffffffffffffffffffffffffffffffffffffff1663e98b7f4d836040518263ffffffff1660e01b815260040161043a9190611dfe565b61014060405180830381865afa158015610458573d6000803e3d6000fd5b505050506040513d601f19601f8201168201806040525081019061047c9190611e66565b909192939495969798509091929394959697509091929394959650909192939495509091929394509091929350909192509091509050809150506104f683826040518060400160405280600581526020017f6b69747479000000000000000000000000000000000000000000000000000000815250610fba565b505050565b6004818154811061050b57600080fd5b906000526020600020906003020160009150905080600001805461052e90611f74565b80601f016020809104026020016040519081016040528092919081815260200182805461055a90611f74565b80156105a75780601f1061057c576101008083540402835291602001916105a7565b820191906000526020600020905b81548152906001019060200180831161058a57829003601f168201915b5050505050908060010154908060020160009054906101000a900463ffffffff16908060020160049054906101000a900463ffffffff16908060020160089054906101000a900461ffff169080600201600a9054906101000a900461ffff16905086565b6106136111c0565b600061061d610ae0565b90508073ffffffffffffffffffffffffffffffffffffffff166108fc479081150290604051600060405180830381858888f19350505050158015610665573d6000803e3d6000fd5b5050565b60606000600660008473ffffffffffffffffffffffffffffffffffffffff1673ffffffffffffffffffffffffffffffffffffffff1681526020019081526020016000205467ffffffffffffffff8111156106c6576106c5611ad4565b5b6040519080825280602002602001820160405280156106f45781602001602082028036833780820191505090505b5090506000805b6004805490508110156107b0578473ffffffffffffffffffffffffffffffffffffffff166005600083815260200190815260200160002060009054906101000a900473ffffffffffffffffffffffffffffffffffffffff1673ffffffffffffffffffffffffffffffffffffffff160361079d578083838151811061078257610781611d74565b5b602002602001018181525050818061079990611fa5565b9250505b80806107a890611fa5565b9150506106fb565b508192505050919050565b60056020528060005260406000206000915054906101000a900473ffffffffffffffffffffffffffffffffffffffff1681565b6107f66111c0565b80600760006101000a81548173ffffffffffffffffffffffffffffffffffffffff021916908373ffffffffffffffffffffffffffffffffffffffff16021790555050565b601482816004828154811061085257610851611d74565b5b906000526020600020906003020160020160009054906101000a900463ffffffff1663ffffffff1610156108bb576040517f08c379a00000000000000000000000000000000000000000000000000000000081526004016108b290612039565b60405180910390fd5b836005600082815260200190815260200160002060009054906101000a900473ffffffffffffffffffffffffffffffffffffffff1673ffffffffffffffffffffffffffffffffffffffff163373ffffffffffffffffffffffffffffffffffffffff161461095d576040517f08c379a0000000000000000000000000000000000000000000000000000000008152600401610954906120cb565b60405180910390fd5b6005600086815260200190815260200160002060009054906101000a900473ffffffffffffffffffffffffffffffffffffffff1673ffffffffffffffffffffffffffffffffffffffff163373ffffffffffffffffffffffffffffffffffffffff16146109fe576040517f08c379a00000000000000000000000000000000000000000000000000000000081526004016109f5906120cb565b60405180910390fd5b8360048681548110610a1357610a12611d74565b5b9060005260206000209060030201600101819055505050505050565b610a376111c0565b610a41600061123e565b565b6000600660003373ffffffffffffffffffffffffffffffffffffffff1673ffffffffffffffffffffffffffffffffffffffff1681526020019081526020016000205414610ac5576040517f08c379a0000000000000000000000000000000000000000000000000000000008152600401610abc90612137565b60405180910390fd5b6000610ad082611302565b9050610adc8282611347565b5050565b60008060009054906101000a900473ffffffffffffffffffffffffffffffffffffffff16905090565b6002838160048281548110610b2157610b20611d74565b5b906000526020600020906003020160020160009054906101000a900463ffffffff1663ffffffff161015610b8a576040517f08c379a0000000000000000000000000000000000000000000000000000000008152600401610b8190612039565b60405180910390fd5b846005600082815260200190815260200160002060009054906101000a900473ffffffffffffffffffffffffffffffffffffffff1673ffffffffffffffffffffffffffffffffffffffff163373ffffffffffffffffffffffffffffffffffffffff1614610c2c576040517f08c379a0000000000000000000000000000000000000000000000000000000008152600401610c23906120cb565b60405180910390fd5b6005600087815260200190815260200160002060009054906101000a900473ffffffffffffffffffffffffffffffffffffffff1673ffffffffffffffffffffffffffffffffffffffff163373ffffffffffffffffffffffffffffffffffffffff1614610ccd576040517f08c379a0000000000000000000000000000000000000000000000000000000008152600401610cc4906120cb565b60405180910390fd5b848460048881548110610ce357610ce2611d74565b5b90600052602060002090600302016000019182610d0192919061230e565b50505050505050565b600060048381548110610d2057610d1f611d74565b5b90600052602060002090600302019050600060048381548110610d4657610d45611d74565b5b906000526020600020906003020190506000610d6260646115be565b9050600a548111610e9657610d9760018460020160089054906101000a900461ffff1661ffff1661161a90919063ffffffff16565b8360020160086101000a81548161ffff021916908361ffff160217905550610de360018460020160009054906101000a900463ffffffff1663ffffffff1661164e90919063ffffffff16565b8360020160006101000a81548163ffffffff021916908363ffffffff160217905550610e2f600183600201600a9054906101000a900461ffff1661ffff1661161a90919063ffffffff16565b82600201600a6101000a81548161ffff021916908361ffff160217905550610e918583600101546040518060400160405280600681526020017f7a6f6d6269650000000000000000000000000000000000000000000000000000815250610fba565b610f30565b610ec0600184600201600a9054906101000a900461ffff1661ffff1661161a90919063ffffffff16565b83600201600a6101000a81548161ffff021916908361ffff160217905550610f0860018360020160089054906101000a900461ffff1661ffff1661161a90919063ffffffff16565b8260020160086101000a81548161ffff021916908361ffff160217905550610f2f83611686565b5b5050505050565b610f3f6111c0565b600073ffffffffffffffffffffffffffffffffffffffff168173ffffffffffffffffffffffffffffffffffffffff1603610fae576040517f08c379a0000000000000000000000000000000000000000000000000000000008152600401610fa590612450565b60405180910390fd5b610fb78161123e565b50565b6005600084815260200190815260200160002060009054906101000a900473ffffffffffffffffffffffffffffffffffffffff1673ffffffffffffffffffffffffffffffffffffffff163373ffffffffffffffffffffffffffffffffffffffff161461105b576040517f08c379a0000000000000000000000000000000000000000000000000000000008152600401611052906120cb565b60405180910390fd5b60006004848154811061107157611070611d74565b5b9060005260206000209060030201905061108a816116b9565b6110c9576040517f08c379a00000000000000000000000000000000000000000000000000000000081526004016110c0906124bc565b60405180910390fd5b600254836110d7919061250b565b9250600060028483600101546110ed919061253c565b6110f79190612570565b9050604051602001611108906125f8565b604051602081830303815290604052805190602001208360405160200161112f919061263e565b6040516020818303038152906040528051906020012003611171576063606482611159919061250b565b826111649190612655565b61116e919061253c565b90505b6111b06040518060400160405280600681526020017f4e6f4e616d65000000000000000000000000000000000000000000000000000081525082611347565b6111b982611686565b5050505050565b6111c86116e0565b73ffffffffffffffffffffffffffffffffffffffff166111e6610ae0565b73ffffffffffffffffffffffffffffffffffffffff161461123c576040517f08c379a0000000000000000000000000000000000000000000000000000000008152600401611233906126d5565b60405180910390fd5b565b60008060009054906101000a900473ffffffffffffffffffffffffffffffffffffffff169050816000806101000a81548173ffffffffffffffffffffffffffffffffffffffff021916908373ffffffffffffffffffffffffffffffffffffffff1602179055508173ffffffffffffffffffffffffffffffffffffffff168173ffffffffffffffffffffffffffffffffffffffff167f8be0079c531659141344cd1fd0a4f28419497f9722a3daafe3b4186f6b6457e060405160405180910390a35050565b60008082604051602001611316919061263e565b6040516020818303038152906040528051906020012060001c90506002548161133f919061250b565b915050919050565b60046040518060c00160405280848152602001838152602001600163ffffffff1681526020016003544261137b919061253c565b63ffffffff168152602001600061ffff168152602001600061ffff16815250908060018154018082558091505060019003906000526020600020906003020160009091909190915060008201518160000190816113d891906126f5565b506020820151816001015560408201518160020160006101000a81548163ffffffff021916908363ffffffff16021790555060608201518160020160046101000a81548163ffffffff021916908363ffffffff16021790555060808201518160020160086101000a81548161ffff021916908361ffff16021790555060a082015181600201600a6101000a81548161ffff021916908361ffff1602179055505050600061149460016004805490506116e890919063ffffffff16565b9050336005600083815260200190815260200160002060006101000a81548173ffffffffffffffffffffffffffffffffffffffff021916908373ffffffffffffffffffffffffffffffffffffffff16021790555061153b6001600660003373ffffffffffffffffffffffffffffffffffffffff1673ffffffffffffffffffffffffffffffffffffffff1681526020019081526020016000205461170f90919063ffffffff16565b600660003373ffffffffffffffffffffffffffffffffffffffff1673ffffffffffffffffffffffffffffffffffffffff168152602001908152602001600020819055507f88f026aacbbecc90c18411df4b1185fd8d9be2470f1962f192bf84a27d0704b78184846040516115b1939291906127c7565b60405180910390a1505050565b6000600960008154809291906115d390611fa5565b91905055508142336009546040516020016115f09392919061286e565b6040516020818303038152906040528051906020012060001c611613919061250b565b9050919050565b600080828461162991906128ab565b90508361ffff168161ffff161015611644576116436128e1565b5b8091505092915050565b600080828461165d9190612910565b90508363ffffffff168163ffffffff16101561167c5761167b6128e1565b5b8091505092915050565b60035442611694919061253c565b8160020160046101000a81548163ffffffff021916908363ffffffff16021790555050565b6000428260020160049054906101000a900463ffffffff1663ffffffff1611159050919050565b600033905090565b6000828211156116fb576116fa6128e1565b5b81836117079190612655565b905092915050565b600080828461171e919061253c565b905083811015611731576117306128e1565b5b8091505092915050565b6000604051905090565b600080fd5b600080fd5b6000819050919050565b6117628161174f565b811461176d57600080fd5b50565b60008135905061177f81611759565b92915050565b60006020828403121561179b5761179a611745565b5b60006117a984828501611770565b91505092915050565b600080604083850312156117c9576117c8611745565b5b60006117d785828601611770565b92505060206117e885828601611770565b9150509250929050565b600081519050919050565b600082825260208201905092915050565b60005b8381101561182c578082015181840152602081019050611811565b60008484015250505050565b6000601f19601f8301169050919050565b6000611854826117f2565b61185e81856117fd565b935061186e81856020860161180e565b61187781611838565b840191505092915050565b61188b8161174f565b82525050565b600063ffffffff82169050919050565b6118aa81611891565b82525050565b600061ffff82169050919050565b6118c7816118b0565b82525050565b600060c08201905081810360008301526118e78189611849565b90506118f66020830188611882565b61190360408301876118a1565b61191060608301866118a1565b61191d60808301856118be565b61192a60a08301846118be565b979650505050505050565b600073ffffffffffffffffffffffffffffffffffffffff82169050919050565b600061196082611935565b9050919050565b61197081611955565b811461197b57600080fd5b50565b60008135905061198d81611967565b92915050565b6000602082840312156119a9576119a8611745565b5b60006119b78482850161197e565b91505092915050565b600081519050919050565b600082825260208201905092915050565b6000819050602082019050919050565b6119f58161174f565b82525050565b6000611a0783836119ec565b60208301905092915050565b6000602082019050919050565b6000611a2b826119c0565b611a3581856119cb565b9350611a40836119dc565b8060005b83811015611a71578151611a5888826119fb565b9750611a6383611a13565b925050600181019050611a44565b5085935050505092915050565b60006020820190508181036000830152611a988184611a20565b905092915050565b611aa981611955565b82525050565b6000602082019050611ac46000830184611aa0565b92915050565b600080fd5b600080fd5b7f4e487b7100000000000000000000000000000000000000000000000000000000600052604160045260246000fd5b611b0c82611838565b810181811067ffffffffffffffff82111715611b2b57611b2a611ad4565b5b80604052505050565b6000611b3e61173b565b9050611b4a8282611b03565b919050565b600067ffffffffffffffff821115611b6a57611b69611ad4565b5b611b7382611838565b9050602081019050919050565b82818337600083830152505050565b6000611ba2611b9d84611b4f565b611b34565b905082815260208101848484011115611bbe57611bbd611acf565b5b611bc9848285611b80565b509392505050565b600082601f830112611be657611be5611aca565b5b8135611bf6848260208601611b8f565b91505092915050565b600060208284031215611c1557611c14611745565b5b600082013567ffffffffffffffff811115611c3357611c3261174a565b5b611c3f84828501611bd1565b91505092915050565b600080fd5b600080fd5b60008083601f840112611c6857611c67611aca565b5b8235905067ffffffffffffffff811115611c8557611c84611c48565b5b602083019150836001820283011115611ca157611ca0611c4d565b5b9250929050565b600080600060408486031215611cc157611cc0611745565b5b6000611ccf86828701611770565b935050602084013567ffffffffffffffff811115611cf057611cef61174a565b5b611cfc86828701611c52565b92509250509250925092565b7f496e636f72726563742066656500000000000000000000000000000000000000600082015250565b6000611d3e600d836117fd565b9150611d4982611d08565b602082019050919050565b60006020820190508181036000830152611d6d81611d31565b9050919050565b7f4e487b7100000000000000000000000000000000000000000000000000000000600052603260045260246000fd5b7f4e487b7100000000000000000000000000000000000000000000000000000000600052601160045260246000fd5b6000611ddd82611891565b915063ffffffff8203611df357611df2611da3565b5b600182019050919050565b6000602082019050611e136000830184611882565b92915050565b60008115159050919050565b611e2e81611e19565b8114611e3957600080fd5b50565b600081519050611e4b81611e25565b92915050565b600081519050611e6081611759565b92915050565b6000806000806000806000806000806101408b8d031215611e8a57611e89611745565b5b6000611e988d828e01611e3c565b9a50506020611ea98d828e01611e3c565b9950506040611eba8d828e01611e51565b9850506060611ecb8d828e01611e51565b9750506080611edc8d828e01611e51565b96505060a0611eed8d828e01611e51565b95505060c0611efe8d828e01611e51565b94505060e0611f0f8d828e01611e51565b935050610100611f218d828e01611e51565b925050610120611f338d828e01611e51565b9150509295989b9194979a5092959850565b7f4e487b7100000000000000000000000000000000000000000000000000000000600052602260045260246000fd5b60006002820490506001821680611f8c57607f821691505b602082108103611f9f57611f9e611f45565b5b50919050565b6000611fb08261174f565b91507fffffffffffffffffffffffffffffffffffffffffffffffffffffffffffffffff8203611fe257611fe1611da3565b5b600182019050919050565b7f5a6f6d626965206c6576656c206973206e6f74206869676820656e6f75676800600082015250565b6000612023601f836117fd565b915061202e82611fed565b602082019050919050565b6000602082019050818103600083015261205281612016565b9050919050565b7f596f7520617265206e6f7420746865206f776e6572206f662074686973207a6f60008201527f6d62696500000000000000000000000000000000000000000000000000000000602082015250565b60006120b56024836117fd565b91506120c082612059565b604082019050919050565b600060208201905081810360008301526120e4816120a8565b9050919050565b7f596f7520616c726561647920686176652061207a6f6d62696500000000000000600082015250565b60006121216019836117fd565b915061212c826120eb565b602082019050919050565b6000602082019050818103600083015261215081612114565b9050919050565b600082905092915050565b60008190508160005260206000209050919050565b60006020601f8301049050919050565b600082821b905092915050565b6000600883026121c47fffffffffffffffffffffffffffffffffffffffffffffffffffffffffffffffff82612187565b6121ce8683612187565b95508019841693508086168417925050509392505050565b6000819050919050565b600061220b6122066122018461174f565b6121e6565b61174f565b9050919050565b6000819050919050565b612225836121f0565b61223961223182612212565b848454612194565b825550505050565b600090565b61224e612241565b61225981848461221c565b505050565b5b8181101561227d57612272600082612246565b60018101905061225f565b5050565b601f8211156122c25761229381612162565b61229c84612177565b810160208510156122ab578190505b6122bf6122b785612177565b83018261225e565b50505b505050565b600082821c905092915050565b60006122e5600019846008026122c7565b1980831691505092915050565b60006122fe83836122d4565b9150826002028217905092915050565b6123188383612157565b67ffffffffffffffff81111561233157612330611ad4565b5b61233b8254611f74565b612346828285612281565b6000601f8311600181146123755760008415612363578287013590505b61236d85826122f2565b8655506123d5565b601f19841661238386612162565b60005b828110156123ab57848901358255600182019150602085019450602081019050612386565b868310156123c857848901356123c4601f8916826122d4565b8355505b6001600288020188555050505b50505050505050565b7f4f776e61626c653a206e6577206f776e657220697320746865207a65726f206160008201527f6464726573730000000000000000000000000000000000000000000000000000602082015250565b600061243a6026836117fd565b9150612445826123de565b604082019050919050565b600060208201905081810360008301526124698161242d565b9050919050565b7f5a6f6d626965206973206e6f7420726561647900000000000000000000000000600082015250565b60006124a66013836117fd565b91506124b182612470565b602082019050919050565b600060208201905081810360008301526124d581612499565b9050919050565b7f4e487b7100000000000000000000000000000000000000000000000000000000600052601260045260246000fd5b60006125168261174f565b91506125218361174f565b925082612531576125306124dc565b5b828206905092915050565b60006125478261174f565b91506125528361174f565b925082820190508082111561256a57612569611da3565b5b92915050565b600061257b8261174f565b91506125868361174f565b925082612596576125956124dc565b5b828204905092915050565b600081905092915050565b7f6b69747479000000000000000000000000000000000000000000000000000000600082015250565b60006125e26005836125a1565b91506125ed826125ac565b600582019050919050565b6000612603826125d5565b9150819050919050565b6000612618826117f2565b61262281856125a1565b935061263281856020860161180e565b80840191505092915050565b600061264a828461260d565b915081905092915050565b60006126608261174f565b915061266b8361174f565b925082820390508181111561268357612682611da3565b5b92915050565b7f4f776e61626c653a2063616c6c6572206973206e6f7420746865206f776e6572600082015250565b60006126bf6020836117fd565b91506126ca82612689565b602082019050919050565b600060208201905081810360008301526126ee816126b2565b9050919050565b6126fe826117f2565b67ffffffffffffffff81111561271757612716611ad4565b5b6127218254611f74565b61272c828285612281565b600060209050601f83116001811461275f576000841561274d578287015190505b61275785826122f2565b8655506127bf565b601f19841661276d86612162565b60005b8281101561279557848901518255600182019150602085019450602081019050612770565b868310156127b257848901516127ae601f8916826122d4565b8355505b6001600288020188555050505b505050505050565b60006060820190506127dc6000830186611882565b81810360208301526127ee8185611849565b90506127fd6040830184611882565b949350505050565b6000819050919050565b61282061281b8261174f565b612805565b82525050565b60008160601b9050919050565b600061283e82612826565b9050919050565b600061285082612833565b9050919050565b61286861286382611955565b612845565b82525050565b600061287a828661280f565b60208201915061288a8285612857565b60148201915061289a828461280f565b602082019150819050949350505050565b60006128b6826118b0565b91506128c1836118b0565b9250828201905061ffff8111156128db576128da611da3565b5b92915050565b7f4e487b7100000000000000000000000000000000000000000000000000000000600052600160045260246000fd5b600061291b82611891565b915061292683611891565b9250828201905063ffffffff81111561294257612941611da3565b5b9291505056fea2646970667358221220719bc9d94fe116b7ab051e76f408c2486714bb59c39516bddd8fa17495ef84cb64736f6c63430008110033",
  "linkReferences": {},
  "deployedLinkReferences": {}
}